:020000040800F2
:1000000010F10120AD010008AF5F00088950000821
:10001000AB5F0008630B0008EF77000800000000EA
:10002000000000000000000000000000676B0008F6
:100030003119000800000000B35F0008696B000878
:10004000C7010008C7010008C7010008C701000870
:10005000C7010008C7010008C7010008C701000860
:10006000C7010008C7010008C7010008C701000850
:10007000C701000895170008C7010008C70100085C
:10008000B9170008C7010008F109000800000000C6
:10009000000000000000000000000000C701000890
:1000A000C7010008C7010008C7010008C701000810
:1000B000C7010008C70100084F6C0008C70100080D
:1000C000C7010008C7010008C7010008C7010008F0
:1000D000C70100087D760008C70100080000000085
:1000E000C7010008C7010008C701000800000000A0
:1000F000000000000000000000000000C701000830
:1001000000000000C7010008C7010008C70100087F
:1001100000000000000000000000000000000000DF
:10012000C9170008C7010008D9170008C70100084F
:10013000C7010008000000000000000000000000EF
:10014000000000000000000000000000C7010008DF
:1001500007180008C701000817180008C7010008A1
:10016000C7010008C70100080000000000000000EF
:10017000000000000000000000000000000000007F
:1001800000000000C701000800000000000000009F
:10019000C7010008C7010008DFF80CD000F098FB89
:1001A0000048004739C2020810F101200648804784
:1001B00006480047FEE7FEE7FEE7FEE7FEE7FEE74C
:1001C000FEE7FEE7FEE7FEE7356C00089901000850
:1001D0002DE9F05F0546002092469B46884606467C
:1001E000814640241BE0284641464746224600F00F
:1001F00088FA53465A46C01A914110D31146184600
:10020000224600F06FFA2D1A67EB01084F4622468E
:100210000120002100F066FA17EB00094E41201E74
:10022000A4F10104DFDC484631462A464346BDE8D6
:10023000F09FD2B201E000F8012B491EFBD27047BB
:100240000022F6E710B513460A4604461946FFF7A2
:10025000F0FF204610BD30B505462A460B4612F881
:10026000010B13F8014B08B1A042F8D01CB10028D3
:1002700002D06D1CF1E7284630BD421C10F8011B6E
:100280000029FBD1801A704710B5002200E0521CF3
:10029000835C8C5CA34201D1002BF8D1D8B2E1B2CF
:1002A000401A10BD30B504460020034600E05B1C38
:1002B000934203D2E05CCD5C401BF8D030BD0346D6
:1002C00011F8012B00F8012B002AF9D118467047CC
:1002D0002DE9FE4F804681EA0300C00F0C460090D6
:1002E00021F0004123F00045B8EB0200A94105D2FE
:1002F0004046214690461C460B46024623F00040ED
:10030000104347D0270DC7F30A00C3F30A510290E8
:10031000401A019040286BDAC3F3130040F4801BAD
:100320000098924620B10023D2EB030A63EB0B0B3B
:1003300001985946C0F14002504600F0D3F90646F4
:100340000D4650465946019A00F0EBF910EB0800B3
:100350006141002487EA115284EAE7731A4340D0CE
:10036000009A62B3019A012A4FEA075215DC001B7A
:1003700061EB02014FF0004202EA0752CDE9004270
:10038000001C41F5801132462B4600F022FA03B0E2
:10039000BDE8F08F40462146F9E7001B61EB020102
:1003A000001C41F5801300185B412018A2F50017CE
:1003B00047EB030140EAD570B6196D4111E06D08B5
:1003C0004FEA360645EAC0754FEA0752001B61EB5B
:1003D0000201001C41F5801149084FEA3000001964
:1003E000514132462B4603B0BDE8F04F00F0E2B970
:1003F0000098012240000023D0EB020263EBE0737F
:10040000009821464FEAE074B8EB000061EB04016C
:10041000E9E783F000435BE781F0004158E72DE90D
:10042000FE4F81EA030404F0004421F000410094EF
:100430004FF0000B23F0004350EA01045ED052EA73
:1004400003045BD0C3F30A54C1F30A552C44A4F24D
:10045000F3340194A0FB0254C1F3130141F4801161
:10046000C3F3130343F4801301FB024400FB034E68
:10047000840A970A44EA815447EA8357A4FB076831
:1004800002958D0A05FB07854FEA932C04FB0C545B
:100490002705029D4FEA065847EA1637B5EB0805CF
:1004A0006EEB070C870E920E47EA811742EA831221
:1004B000A7FB0201B6EB0B0164EB00042B0D43EA32
:1004C0000C335E1844EB1C50DA465146E7FB020140
:1004D000C5F313044FEA0B3343EA14534FEA0432D3
:1004E000019C43EA0603A4F10C040294009CCDE9AC
:1004F00000B400F06EF903B0BDE8F08F00200146B3
:10050000F9E72DE9F04D81EA030404F0004B21F0F6
:10051000004514464FF0000A23F0004150EA05025E
:1005200020D054EA01021DD0C5F30A570246C5F394
:100530001303C1F31300C1F30A5640F4801543F4CA
:100540008013A7EB0608101BD64608F2FD3873EBA4
:10055000050002D308F1010801E092185B41B8F1EF
:10056000000F03DA00200146BDE8F08D00204FF4B3
:100570008011064684460EE0171B73EB050705D372
:10058000121B63EB050306434CEA010C49084FEAD2
:10059000300092185B4150EA0107EDD152EA0300A6
:1005A00012D082EA040083EA0501084305D0101B3B
:1005B000AB4106D20122002306E000224FF00043A7
:1005C00002E06FF0010253101AEB06004CEB0851E9
:1005D00010EB0A0041EB0B01BDE8F04D00F0EAB86A
:1005E0000EB5C10F80EAE0700844CA07002140F24E
:1005F00033438DE80E000A460B4600F0EAF803B0DC
:1006000000BD0EB540F2334102910021CDE9001149
:100610000A460B4600F0DDF803B000BD70B5C1F32B
:100620000A5201F000450024C1F3130140F2FF33E8
:1006300041F480119A4201DA002070BD40F2334348
:100640009A42A2F2334203DC524200F05AF800E030
:1006500090402C43F1D0404270BD00F0004230F099
:1006600000400AD0C10D01F56071C0F3160042EAE6
:100670000151C208400711437047002001467047EE
:1006800001F0004330B421F0004150EA010206D0ED
:100690000A0DA2F56072C1F31301002A02DC30BC1E
:1006A00000207047440F44EAC104C100E01830BC88
:1006B00000EBC25000F047B830B50B4601460020B1
:1006C0002022012409E021FA02F59D4205D303FA14
:1006D00002F5491B04FA02F52844151EA2F1010295
:1006E000F1DC30BD202A04DB203A00FA02F10020C0
:1006F00070479140C2F1200320FA03F31943904060
:100700007047202A04DB203A21FA02F000217047CA
:1007100021FA02F3D040C2F1200291400843194669
:100720007047202A06DBCB17203A41FA02F043EA51
:10073000E07306E041FA02F3D040C2F1200291409A
:100740000843194670470029A8BF7047401C49005C
:1007500008BF20F00100704710B4B0FA80FC00FA26
:100760000CF050EA010404BF10BC704749B1CCF151
:10077000200421FA04F411FA0CF118BF01212143DD
:100780000843A3EB0C01CB1D4FEA00614FEA102098
:1007900042BF002010BC704700EBC350104400293A
:1007A000A4BF10BC7047401C490008BF20F00100E6
:1007B00010BC704710B5141E73F1000408DA401C19
:1007C00041F1000192185B411A4301D120F0010070
:1007D00010BD2DE9F04D92469B4611B1B1FA81F260
:1007E00002E0B0FA80F220329046FFF77BFF044629
:1007F0000F4640EA0A0041EA0B0153465A460843B5
:1008000013D0114653EA010019D0C8F140025046F6
:10081000FFF777FF05460E46504659464246FFF71A
:1008200061FF084305D0012004E020463946BDE8B9
:10083000F08D0020054346EAE0762C4337430A98C2
:100840006305E40AA0EB08000022FD0A44EA4754CD
:100850000A3002D500200146E9E701051019694177
:10086000DDE9084500196941BDE8F04DA2E7C1F393
:100870000A52C1F3130140F2FF3341F480119A424E
:1008800002DA00200146704740F233439A42A2F256
:10089000334202DC5242FFF734BFFFF723BF0000B0
:1008A00030B5041E71F1000404DB4FF000444042F7
:1008B00064EB0101141E73F1000405DB1C464FF0CC
:1008C0000043524263EB0403994208BF904230BD9B
:1008D000064C074D06E0E06840F0010394E807008D
:1008E00098471034AC42F6D3FFF75AFC705706080D
:1008F0009057060870B58C1810F8015B15F00703C7
:1009000001D110F8013B2A1106D110F8012B03E0A8
:1009100010F8016B01F8016B5B1EF9D12B0705D4B0
:100920000023521E0DD401F8013BFAE710F8013BF9
:10093000CB1A921C03E013F8015B01F8015B521E15
:10094000F9D5A142D8D3002070BD70B50546AC6B77
:10095000206C00F0500050BB206C40F4007020640C
:100960002068806800F04050E8B9207ED8B920683F
:10097000C06A00F4700020B12068806800F48060D4
:1009800088B92068406820F0200021684860206C09
:1009900020F480702064206C00F4805018B9206C22
:1009A00040F001002064204601F0D5FA0BE0206CF5
:1009B00000F0100018B1204601F0CFFA03E0A06B60
:1009C000C16C2846884770BD70B50546AC6B4020A9
:1009D0002064606C40F004006064204601F0BDFAC1
:1009E00070BD70B50446A56B284601F0B5FA70BD20
:1009F00010B540F27C50C2F2000001F0AFFA10BD19
:100A00004FF40C51C4F201014A6822F440324A60AA
:100A10004A6843681A434A600268526822F4807246
:100A200003685A6002685368026943EA0222036855
:100A30005A600268526822F0407203685A60026885
:100A4000526883681A4303685A600268926822F405
:100A5000006203689A6002689268C3681A43036878
:100A60009A600123C0F60073826A9A4218D0026825
:100A7000926822F0706203689A6002689268836AE2
:100A80001A4303689A600268926822F04052036831
:100A90009A6002689268C36A1A4303689A600BE01E
:100AA0000268926822F0706203689A600268926835
:100AB00022F0405203689A600268926822F00202B3
:100AC00003689A6002689368027E43EA4202036800
:100AD0009A602022125CA2B10268526842F400625D
:100AE00003685A600268526822F4604203685A60E0
:100AF00002685368426A521E43EA423203685A60EF
:100B000005E00268526822F4006203685A600268D5
:100B1000D26A22F470020368DA620268D36A828BB6
:100B2000521E43EA02520368DA620268926822F4B3
:100B3000007203689A600268936890F8302043EA74
:100B4000422203689A600268926822F48062036815
:100B50009A6002689368426943EA822203689A6055
:100B6000704700BFFEE700B52DED0A8B81B040F263
:100B7000A040C2F200004088B0F5FA7F20DB40F2CE
:100B8000A040C2F200008088B0F5967F18DC40F2E9
:100B90008040C2F20000007890B9002040F6244165
:100BA000C4F20001086040F66C10C2F2000003F0CD
:100BB000E3FB012040F28041C2F20001087050E0E6
:100BC00040F2A040C2F20000C088B0F5FA7F20DBFE
:100BD00040F2A040C2F200000089B0F5967F18DC18
:100BE00040F28040C2F20000407890B9002040F608
:100BF0002441C4F20001086040F66C10C2F200000B
:100C000003F0BAFB012040F28041C2F200014870BB
:100C100027E040F2A040C2F200004089B0F5FA7F20
:100C20001FDB40F2A040C2F200008089B0F5967F41
:100C300017DC40F28040C2F20000807888B90020C2
:100C400040F62441C4F20001086040F66C10C2F284
:100C5000000003F091FB012040F28041C2F200014C
:100C6000887040F2A040C2F200008088B0F5FA7FA0
:100C70000ADA40F62440C4F20000006844F2402141
:100C8000C0F20F01884225D340F66C10C2F200007A
:100C900003F002FC40F62441C4F200010868FFF7AB
:100CA000B0FC41EC190B53EC192B00204FF4084118
:100CB000C4F2C301FFF725FCFFF7E2FC4DF2DC01B3
:100CC000C2F201010860002040F28041C2F200013E
:100CD000087070E040F2A040C2F200000089B0F558
:100CE000FA7F0ADA40F62440C4F20000006844F2B9
:100CF0004021C0F20F01884225D140F66C10C2F2AB
:100D0000000003F0C9FB40F62441C4F2000108686A
:100D1000FFF777FC41EC190B53EC192B00204FF433
:100D20000841C4F2C301FFF7ECFBFFF7A9FC4DF249
:100D3000DC01C2F201014860002040F28041C2F2B1
:100D40000001487037E040F2A040C2F20000808904
:100D5000B0F5FA7F0ADA40F62440C4F200000068D9
:100D600044F24021C0F20F01884224D140F66C10B9
:100D7000C2F2000003F090FB40F62441C4F20001EF
:100D80000868FFF73EFC41EC190B53EC192B0020CF
:100D90004FF40841C4F2C301FFF7B3FBFFF770FC47
:100DA0004DF2DC01C2F201018860002040F2804176
:100DB000C2F20001887040F22440C4F200000068D2
:100DC000B0F57A7F7DD34DF2DC00C2F2010090EDE8
:100DD000000A10EE101A0846FFF73FFC41EC180B12
:100DE00053EC182B45F26071C0F606014DF2C800B5
:100DF000C2F2010006F00EFD4DF2C801C2F201017F
:100E000040F20030C2F20000006821F089FC14209A
:100E10006FF045030022009040F2F020C2F2000083
:100E2000016840F20030C2F20000006822F023F9AD
:100E30004DF2DC00C2F2010090ED000A10EE101A33
:100E40000846FFF70AFC41EC1A0B4DF2DC00C2F237
:100E5000010090ED000A10EE101A0846FFF7FDFBA6
:100E600041EC1C0B40F26040C2F2000090ED000B20
:100E700053EC102B51EC1C0BFFF7D1FA53EC1A2B4F
:100E8000FFF7CDFA41EC190B00204FF48041C4F27A
:100E90009F0141EC100B53EC102B51EC190BFFF799
:100EA00030FBFFF7EDFB4DF2E801C2F201010860F3
:100EB0004DF2DC00C2F2010090ED000A10EE101AB3
:100EC00000E0AEE20846FFF7C8FB41EC1A0B40F227
:100ED0006040C2F2000090ED000B53EC102B51EC7F
:100EE0001A0BFFF79CFA41EC190B00204FF48041DC
:100EF000C4F28F0141EC100B53EC102B51EC190B89
:100F0000FFF7FFFAFFF7BCFB4DF2F401C2F201015B
:100F100008604DF2E800C2F2010090ED000A10EE08
:100F2000101A0846FFF799FB41EC180B53EC182BED
:100F300045F26871C0F606014DF2C800C2F2010028
:100F400006F068FC4DF2C801C2F2010140F20C301B
:100F5000C2F20000006821F0E3FB142000231A46CF
:100F6000009040F2F020C2F20000016840F20C3024
:100F7000C2F20000006822F07EF84DF2F400C2F2E6
:100F8000010090ED000A10EE101A0846FFF765FB0D
:100F900041EC180B53EC182B45F26871C0F60601B2
:100FA0004DF2C800C2F2010006F034FC4DF2C80157
:100FB000C2F2010140F21830C2F20000006821F0D4
:100FC000AFFB142046230022009040F2F020C2F232
:100FD0000000016840F21830C2F20000006822F000
:100FE0004AF84DF2DC00C2F2010090ED010A10EE69
:100FF000101A0846FFF731FB41EC180B53EC182B85
:1010000045F26071C0F606014DF2C800C2F201005F
:1010100006F000FC4DF2C801C2F2010140F20430BA
:10102000C2F20000006821F07BFB3C206FF045031A
:101030000022009040F2F020C2F20000016840F26D
:101040000430C2F20000006822F015F84DF2DC0016
:10105000C2F2010090ED010A10EE101A0846FFF7E7
:10106000FCFA41EC1A0B4DF2DC00C2F2010090EDEB
:10107000010A10EE101A0846FFF7EFFA41EC1C0BBC
:1010800040F26040C2F2000090ED000B53EC102BD8
:1010900051EC1C0BFFF7C3F953EC1A2BFFF7BFF908
:1010A00041EC190B00204FF48041C4F29F0141EC48
:1010B000100B53EC102B51EC190BFFF722FAFFF732
:1010C000DFFA4DF2E801C2F2010148604DF2DC00A6
:1010D000C2F2010090ED010A10EE101A0846FFF767
:1010E000BCFA41EC1A0B40F26040C2F2000090EDF5
:1010F000000B53EC102B51EC1A0BFFF790F941EC5D
:10110000190B00204FF48041C4F28F0141EC100B09
:1011100053EC102B51EC190BFFF7F3F9FFF7B0FA72
:101120004DF2F401C2F2010148604DF2E800C2F252
:10113000010090ED010A10EE101A0846FFF78DFA33
:1011400041EC180B53EC182B45F26871C0F6060100
:101150004DF2C800C2F2010006F05CFB4DF2C8017E
:10116000C2F2010140F21030C2F20000006821F02A
:10117000D7FA3C2000231A46009040F2F020C2F239
:101180000000016840F21030C2F20000006821F057
:1011900072FF4DF2F400C2F2010090ED010A10EE70
:1011A000101A0846FFF759FA41EC180B53EC182BAC
:1011B00045F26871C0F606014DF2C800C2F20100A6
:1011C00006F028FB4DF2C801C2F2010140F21C30CA
:1011D000C2F20000006821F0A3FA3C20462300225E
:1011E000009040F2F020C2F20000016840F21C3092
:1011F000C2F20000006821F03EFF4DF2DC00C2F2B6
:10120000010090ED020A10EE101A0846FFF725FAC9
:1012100041EC180B53EC182B45F26071C0F6060137
:101220004DF2C800C2F2010006F0F4FA4DF2C80116
:10123000C2F2010140F20830C2F20000006821F061
:101240006FFA64206FF045030022009040F2F02016
:10125000C2F20000016840F20830C2F200000068EB
:1012600021F009FF4DF2DC00C2F2010090ED020A0C
:1012700010EE101A0846FFF7F0F941EC1A0B4DF288
:10128000DC00C2F2010090ED020A10EE101A0846CE
:10129000FFF7E3F941EC1C0B40F26040C2F20000A2
:1012A00090ED000B53EC102B51EC1C0BFFF7B7F833
:1012B00053EC1A2BFFF7B3F841EC190B00204FF455
:1012C0008041C4F29F0141EC100B53EC102B51EC08
:1012D000190BFFF716F9FFF7D3F94DF2E801C2F247
:1012E000010188604DF2DC00C2F2010090ED020ABB
:1012F00010EE101A0846FFF7B0F941EC1A0B40F255
:101300006040C2F2000090ED000B53EC102B51EC4A
:101310001A0BFFF784F841EC190B00204FF48041C1
:10132000C4F28F0141EC100B53EC102B51EC190B54
:10133000FFF7E7F8FFF7A4F94DF2F401C2F201015B
:1013400088604DF2E800C2F2010090ED020A10EE52
:10135000101A0846FFF781F941EC180B53EC182BD3
:1013600045F26871C0F606014DF2C800C2F20100F4
:1013700006F050FA4DF2C801C2F2010140F21430F9
:10138000C2F20000006821F0CBF9642000231A4665
:10139000009040F2F020C2F20000016840F21430E8
:1013A000C2F20000006821F066FE4DF2F400C2F2C5
:1013B000010090ED020A10EE101A0846FFF74DF9F1
:1013C00041EC180B53EC182B45F26871C0F606017E
:1013D0004DF2C800C2F2010006F01CFA4DF2C8013D
:1013E000C2F2010140F22030C2F20000006821F098
:1013F00097F9642046230022009040F2F020C2F2C8
:101400000000016840F22030C2F20000006821F0C4
:1014100032FE0DF081F8002040F22441C4F20001B8
:10142000086000F008F813F0BFFD00F0D5FA01B035
:10143000BDEC0A8B00BD10B540F29740C2F200002F
:10144000007828BB40F29440C2F200000078F8B95E
:1014500040F28740C2F200000078012818D1012232
:10146000C1020020C4F2020001F04AFB0A2001F090
:1014700027FA012251034FF40060C4F2020001F088
:101480003FFB012040F29441C2F20001087026E0C7
:1014900040F29440C2F20000007801281FD140F2CF
:1014A0008740C2F200000078C8B900224FF4005112
:1014B0004FF40060C4F2020001F022FB0A2001F0A8
:1014C000FFF900224FF400610020C4F2020001F095
:1014D00017FB002040F29441C2F20001087040F274
:1014E0009740C2F20000407830BB40F29440C2F214
:1014F0000000407800BB40F28740C2F20000407814
:10150000012819D1012281024FF48060C4F2020047
:1015100001F0F6FA0A2001F0D3F9012251034FF449
:101520000060C4F2020001F0EBFA012040F29441A5
:10153000C2F20001487027E040F29440C2F200007D
:101540004078012820D140F28740C2F20000407864
:10155000D0B900224FF400514FF40060C4F20200F1
:1015600001F0CEFA0A2001F0ABF900224FF48061BD
:101570004FF48060C4F2020001F0C2FA002040F291
:101580009441C2F20001487040F29740C2F200005C
:10159000807830BB40F29440C2F20000807800BBFB
:1015A00040F28740C2F200008078012819D1012260
:1015B00040214FF40060C4F2020001F0A1FA0A20B9
:1015C00001F07EF9012251034FF40060C4F20200E1
:1015D00001F096FA012040F29441C2F200018870B5
:1015E00026E040F29440C2F20000807801281FD12A
:1015F00040F28740C2F200008078C8B900224FF460
:1016000000514FF40060C4F2020001F079FA0A20A0
:1016100001F056F9002240214FF40060C4F20200AC
:1016200001F06EFA002040F29441C2F2000188708D
:101630004DF20010C2F20100D0ED000A40F28E40DF
:10164000C2F20000008800EE100AB8EE400AF4EE84
:10165000C00AF1EE10FA0CDB012040F29741C2F211
:1016600000010870002040F28741C2F200010870BA
:1016700019E04DF20010C2F20100D0ED000A40F274
:101680008E40C2F20000008800EE100AB8EE400A58
:10169000F4EEC00AF1EE10FA05D2002040F29741B4
:1016A000C2F2000108704DF20010C2F20100D0ED4C
:1016B000010A40F28E40C2F20000408800EE100A9B
:1016C000B8EE400AF4EEC00AF1EE10FA0CDB01208D
:1016D00040F29741C2F200014870002040F2874179
:1016E000C2F20001487019E04DF20010C2F2010090
:1016F000D0ED010A40F28E40C2F20000408800EEB8
:10170000100AB8EE400AF4EEC00AF1EE10FA05D263
:10171000002040F29741C2F2000148704DF20010E3
:10172000C2F20100D0ED020A40F28E40C2F2000087
:10173000808800EE100AB8EE400AF4EEC00AF1EE1E
:1017400010FA0CDB012040F29741C2F200018870D0
:10175000002040F28741C2F20001887019E04DF28A
:101760000010C2F20100D0ED020A40F28E40C2F237
:101770000000808800EE100AB8EE400AF4EEC00ABD
:10178000F1EE10FA05D2002040F29741C2F20001BA
:10179000887010BD10B540F2EC70C2F2000000F08D
:1017A000AFFE40F2EC70C2F2000090F83500012864
:1017B00001D12BF090FE10BD10B540F28C70C2F23A
:1017C000000000F09DFE10BD10B540F2C450C2F202
:1017D000000000F095FE10BD10B540F22C70C2F272
:1017E000000000F08DFE40F22C70C2F2000090F874
:1017F0003500012806D140F25C20C2F200000068EA
:101800001BF03DFA10BD10B540F6C020C2F200003A
:1018100000F076FE10BD10B540F62030C2F2000098
:1018200000F06EFE10BD0146087810381823B0FB9A
:10183000F3F242F63250C0F60300805CC865032A1A
:1018400005D908686FF30900001D886503E0086882
:101850006FF309008865886D7047014600208A6A29
:101860008B69CBB932B1012A0DD0022A03D0032AE9
:1018700010D10EE000BFCB6A03F08073B3F1807F1C
:1018800000D1012007E0CB6AB3F1C07F00D1012075
:1018900001E000E000BF34E08B69B3F5005F1AD1CE
:1018A00032B1012A07D0022A03D0032A11D10AE05B
:1018B00000BF01200EE0CB6A03F08073B3F1807F9C
:1018C00000D1012006E0CB6AB3F1C07F00D1012036
:1018D00000E000BF15E032B1012A05D0022A04D091
:1018E000032A0CD103E000BF00BF012008E0CB6A4F
:1018F00003F08073B3F1807F00D1012000E000BFCE
:1019000000BF704730B50468246824F4802405685B
:101910002C60046863608468402C04D10468A26071
:101920000468E16003E00468A1600468E26030BD1F
:10193000704710B540F2C130C2F2000000780128B3
:1019400049D140F2C030C2F200000078012810D125
:1019500000200021C4F20101486240F64C00C2F2AE
:10196000000002F009FD002040F2C031C2F2000187
:1019700008700020C4F20100406A40F6B831884285
:1019800029D345F24C40C0F6060005F033FF012094
:1019900000F096FF45F25C40C0F6060005F02AFF15
:1019A000012000F08DFF45F27440C0F6060005F0FE
:1019B00021FF40F64C00C2F2000002F06DFD012054
:1019C00040F2C031C2F200010870002040F2C13183
:1019D000C2F20001087010BD10B52DED028B40F26F
:1019E0008340C2F200000078012865D145F2A8606A
:1019F000C0F6060005F0FEFE012000F061FF4DF28A
:101A00000010C2F2010090ED000A10EE101A084614
:101A1000FEF723FE41EC180B53EC182B45F2BC608B
:101A2000C0F6060005F0E6FE042000F049FF45F28E
:101A3000A860C0F6060005F0DDFE012000F040FFC2
:101A40004DF20010C2F2010090ED010A10EE101AE2
:101A50000846FEF702FE41EC180B53EC182B45F23A
:101A6000C860C0F6060005F0C5FE042000F028FF9F
:101A700045F2A860C0F6060005F0BCFE012000F0AB
:101A80001FFF4DF20010C2F2010090ED020A10EEAD
:101A9000101A0846FEF7E1FD41EC180B53EC182B29
:101AA00045F2D460C0F6060005F0A4FE002040F226
:101AB0008341C2F20001087040F28440C2F200008B
:101AC0000078012865D145F2E060C0F6060005F017
:101AD00091FE012000F0F4FE4DF2DC00C2F20100A4
:101AE00090ED000A10EE101A0846FEF7B6FD41EC24
:101AF000180B53EC182B45F2F460C0F6060005F005
:101B000079FE042000F0DCFE45F2E060C0F606003D
:101B100005F070FE012000F0D3FE4DF2DC00C2F2B1
:101B2000010090ED010A10EE101A0846FEF795FD2F
:101B300041EC180B53EC182B45F20070C0F6060070
:101B400005F058FE042000F0BBFE45F2E060C0F650
:101B5000060005F04FFE012000F0B2FE4DF2DC0061
:101B6000C2F2010090ED020A10EE101A0846FEF7CC
:101B700074FD41EC180B53EC182B45F20C70C0F6B9
:101B8000060005F037FE002040F28441C2F2000159
:101B9000087040F28540C2F200000078012865D14B
:101BA00045F2E060C0F6060005F024FE012000F0DA
:101BB00087FE4DF2E800C2F2010090ED000A10EE3F
:101BC000101A0846FEF749FD41EC180B53EC182B90
:101BD00045F21870C0F6060005F00CFE042000F077
:101BE0006FFE45F2E060C0F6060005F003FE01203E
:101BF00000F066FE4DF2E800C2F2010090ED010A2D
:101C000010EE101A0846FEF728FD41EC180B53ECB5
:101C1000182B45F22470C0F6060005F0EBFD0420F9
:101C200000F04EFE45F2E060C0F6060005F0E2FD71
:101C3000012000F045FE4DF2E800C2F2010090EDF7
:101C4000020A10EE101A0846FEF707FD41EC180BC9
:101C500053EC182B45F23070C0F6060005F0CAFDB3
:101C6000002040F28541C2F20001087040F2864037
:101C7000C2F200000078012865D145F2E060C0F6AC
:101C8000060005F0B7FD012000F01AFE4DF2F40049
:101C9000C2F2010090ED000A10EE101A0846FEF79D
:101CA000DCFC41EC180B53EC182B45F23C70C0F6F1
:101CB000060005F09FFD042000F002FE45F2E06002
:101CC000C0F6060005F096FD012000F0F9FD4DF28A
:101CD000F400C2F2010090ED010A10EE101A08465D
:101CE000FEF7BBFC41EC180B53EC182B45F2487087
:101CF000C0F6060005F07EFD042000F0E1FD45F28F
:101D0000E060C0F6060005F075FD012000F0D8FD8A
:101D10004DF2F400C2F2010090ED020A10EE101A2A
:101D20000846FEF79AFC41EC180B53EC182B45F2D1
:101D30005470C0F6060005F05DFD002040F28641BB
:101D4000C2F200010870BDEC028B10BD72B600BF7C
:101D5000FEE70022AFF3008010B4844601204DF26C
:101D6000BC03C2F201035C7A002C16D1587A1C54D1
:101D7000587A03EB8000C0F804C0587A03F1080CCD
:101D800000F80C20587A421C5A72303008703A2001
:101D900048702F208870CC70002010BC70477047AE
:101DA00038B502460020009000BF92F83C000128A0
:101DB00001D1022038BD012082F83C0000BF086834
:101DC000092816D91068C0680C780A3C04EB440551
:101DD0000724AC40A0431468E0600C780A3C04EB94
:101DE00044048868A0401468E46820431468E060F4
:101DF00013E0106800690C7804EB44050724AC403C
:101E0000A043146820610C7804EB44048868A04067
:101E1000146824692043146820614868072817D291
:101E20001068406B0C79641E04EB84051F24AC40E1
:101E3000A04314686063088880B20C79641E04EBC8
:101E40008404A0401468646B20431468606331E02C
:101E500048680D2817D21068006B0C79E41F04EB5A
:101E600084051F24AC40A04314682063088880B216
:101E70000C79E41F04EB8404A0401468246B204315
:101E80001468206316E01068C06A0C790D3C04EBFE
:101E900084051F24AC40A0431468E062088880B227
:101EA0000C790D3C04EB8404A0401468E46A2043E0
:101EB0001468E0624FF40C53C4F201034FF4005471
:101EC000C4F201041068A0420AD10868122807D1A0
:101ED000586820F400005860586840F4800058604A
:101EE0004FF40054C4F201041068A0422CD1122413
:101EF000C1F200040868A04202D00868112823D16A
:101F0000586820F480005860586840F40000586019
:101F10001224C1F200040868A04215D140F2440026
:101F2000C2F20000006844F24024C0F20F04B0FB8B
:101F3000F4F000EB80004000009002E00098401EAA
:101F4000009000980028F9D100BF002082F83C00E2
:101F500000BF00BF2EE770477047704770B504465A
:101F60000025002620680068C0F34005206840680E
:101F7000C0F3401695B38EB3206C00F0100018B972
:101F8000206C40F4007020642068806800F04050AD
:101F9000E8B9207ED8B92068C06A00F4700020B18A
:101FA0002068806800F4806088B92068406820F06C
:101FB000200021684860206C20F480702064206C30
:101FC00000F4805018B9206C40F0010020642046D5
:101FD000FFF7C1FF6FF012002168086020680068F9
:101FE000C0F3800520684068C0F3C016E5B3DEB3D7
:101FF000206C00F0100018B9206C40F400502064F0
:102000002068806800F4401038BB2068806B00F4C2
:10201000401020B12068806800F48060E8B9206832
:10202000406800F48060C0B92068806800F04050CB
:1020300098B9207E88B92068406820F08000216827
:102040004860206C20F480502064206C00F4807084
:1020500018B9206C40F0010020642046FFF79FFE75
:102060006FF00C00216808602068006800F001052E
:1020700020684068C0F3801685B17EB12068006892
:1020800000F0010050B1206C40F480302064204604
:1020900000F052F86FF001002168086020680068C5
:1020A000C0F3401520684068C0F380667DB176B10A
:1020B000606C40F0020060646FF0200021680860EE
:1020C0002046FFF74AFF6FF020002168086070BDCE
:1020D00070B5044600250CB9012070BD0121C0F681
:1020E0000071A06A884200D000BF206C30B9204641
:1020F00000F023F80020606484F83C00206C00F0BD
:10210000100088B9206C20F4885040F00200206450
:102110002046FEF775FC00206064206C20F0020071
:1021200040F00100206400E0012500BF002084F899
:102130003C0000BF2846D0E7704710B586B0044683
:10214000142101A8FEF77CF84FF40051C4F20101FC
:10215000206888427CD100BF0020009043F64400F4
:10216000C4F20200006840F4807043F64401C4F2F7
:10217000020108600846006800F48070009000BF0B
:1021800000BF00BF0020009043F63000C4F2020000
:10219000006840F0040043F63001C4F20201086018
:1021A0000846006800F00400009000BF00BF00BFB8
:1021B000002000900846006840F0010008600846D2
:1021C000006800F00100009000BF00BF00BF0020C9
:1021D00000900846006840F0020008600846006869
:1021E00000F00200009000BF00BF382001900320E3
:1021F00002900020039001A94FF40060C4F2020095
:1022000000F073FBEE200190032002900020039069
:1022100001A90020C4F2020000F067FB0120019038
:10222000032002900020039001A94FF48060C4F2C3
:10223000020000F05AFB46F21040C4F2020040F2E5
:10224000C451C2F20001086000204860002100E093
:1022500026E040F2C450C2F200008160C1604FF439
:102260008061016149004161890081614911C16159
:1022700000210162416200F063FA08B1FFF766FDD8
:1022800000BF40F2C450C2F20000A063846300BFEC
:1022900000221146122000F0D2FC122000F0BFFCF8
:1022A00006B010BDF8B504460D4616460020009055
:1022B00000BF94F83C00012801D10220F8BD0120A4
:1022C00084F83C0000BF2068806800F00100D0B9AD
:1022D0002068806840F001002168886040F2440076
:1022E000C2F20000006844F24021C0F20F01B0FBCE
:1022F000F1F000EB4000009002E00098401E0090DA
:1023000000980028F9D12068806800F48070B0F54A
:10231000807F05D12068806820F480702168886003
:102320002068806800F00100002876D0206C20F042
:10233000010020F4C06040F4807020642068406890
:1023400000F4806028B1206C20F4005040F48050EC
:102350002064206C00F48050B0F5805F04D1606C84
:1023600020F00600606401E00020606400BF0020EF
:1023700084F83C0000BF4FF40C57C4F2010740F64C
:102380004B10C0F60000A16BC86340F6E310C0F626
:102390000000A16B086440F6C910C0F60000A16BF4
:1023A000C8646FF02200216808602068406840F02F
:1023B0008060216848602068806840F480702168EF
:1023C0008860226802F14C0133462A46A06B00F077
:1023D0002EFA786800F01F0058B92068806800F075
:1023E000405010BB2068806840F0804021688860C1
:1023F0001BE04FF40051C4F201012068884214D15F
:102400002068806800F0405078B92068806840F00B
:1024100080402168886008E0FFE7206C40F01000F1
:102420002064606C40F001006064002046E770B5F5
:102430000446A56D00F06AFB064694F835000228B4
:1024400008D08020606500BF002084F8340000BF01
:10245000012070BD2068006820F016002168086027
:102460002068406920F0800021684861206C08B92C
:10247000A06C28B12068006820F00800216808607E
:102480002068006820F00100216808600FE000F07B
:102490003DFB801B05280AD92020606500BF002075
:1024A00084F8340000BF032084F83500D1E72068A9
:1024B000006800F001000028E9D194F85C103F208A
:1024C0008840A86000BF002084F8340000BF0120CD
:1024D00084F835000020BCE7014691F83500022859
:1024E00003D08020486501207047052081F8350021
:1024F0000868006820F001000A6810600020F3E717
:10250000F8B504460020009040F24400C2F20000FA
:1025100000684FF41651B0FBF1F7A56D2E6894F8E2
:102520005C1008208840304098B12068006800F0B6
:10253000040070B12068006820F004002168086081
:1025400094F85C1008208840A860606D40F001009D
:10255000606594F85C1001208840304068B12068C4
:10256000406900F0800040B194F85C100120884080
:10257000A860606D40F00200606594F85C10042073
:102580008840304068B12068006800F0020040B127
:1025900094F85C1004208840A860606D40F004004E
:1025A000606594F85C1010208840304078B3206853
:1025B000006800F0080050B394F85C1010208840C8
:1025C000A8602068006800F4802080B1206800685E
:1025D00000F4002028B9206CC8B12046216C88473F
:1025E00015E0A06C98B12046A16C88470FE02068E8
:1025F000006800F4807028B92068006820F00800A6
:1026000021680860206C10B12046216C884794F83E
:102610005C10202088403040002865D02068006889
:1026200000F0100000285FD094F85C102020884053
:10263000A86094F83500052828D12068006820F0AB
:102640001600216808602068406920F08000216839
:102650004861206C08B9A06C28B12068006820F09F
:1026600008002168086094F85C103F208840A8604A
:1026700000BF002084F8340000BF012084F835003A
:10268000206D10B12046216D8847F8BD2068006894
:1026900000F4802080B12068006800F4002028B990
:1026A000606C10B12046616C88471DE0E06BD8B1CA
:1026B0002046E16B884717E02068006800F48070CE
:1026C00068B92068006820F010002168086000BF29
:1026D000002084F8340000BF012084F83500E06B4E
:1026E00010B12046E16B8847606D38B3606D00F033
:1026F0000100F0B1052084F835002068006820F062
:1027000001002168086000BF0098401C0090B8429A
:1027100000D905E02068006800F001000028F3D12E
:1027200000BF00BF002084F8340000BF012084F8FF
:102730003500E06C10B12046E16C884700BFA4E78B
:102740002DE9F0410446002500F0E0F9074614B9F0
:102750000120BDE8F081606A00B100BF00BF002029
:1027600084F8340000BF022084F835002068006837
:1027700020F00100216808600AE000F0C7F9C01BE2
:10278000052805D920206065032084F83500E0E79E
:102790002068006800F001000028EED1206805687C
:1027A00048F23F00CFF210000540D4E90101084390
:1027B000E16808432169084361690843A169084346
:1027C000E1690843216A08430543606A042803D18C
:1027D000D4E90B010843054320680560206845697A
:1027E00025F00705606A0543606A04280DD1A06AD8
:1027F0000543E06A48B12046FFF72FF828B1402092
:102800006065012084F83500A3E720684561204613
:10281000FFF709F8064694F85C103F208840B06046
:1028200000206065012084F83500002091E72DE943
:10283000F04704460D4616461F464FF00008D4F8F0
:10284000589000BF94F83400012802D10220BDE85E
:10285000F087012084F8340000BF94F83500012887
:1028600025D1022084F83500002060653B463246C1
:1028700029462046FFF746F894F85C103F20884030
:10288000C9F808002068006840F016002168086058
:10289000206C28B12068006840F0080021680860BA
:1028A0002068006840F001002168086006E000BF71
:1028B000002084F8340000BF4FF002084046C6E70D
:1028C00070B5044600F022F906462546681C28B17A
:1028D00040F24000C2F200000078054400BF00F062
:1028E00015F9801BA842FAD370BDF8B502460B4615
:1028F0000025002400200021F6E0012606FA01F55B
:102900001E6806EA0504AC427DD11E7906F0030676
:10291000012E04D01E7906F00306022E13D1906812
:102920004F000326BE40B0434F00DE68BE40304338
:102930009060506801268E40B0431E79C6F30016A1
:102940008E40304350601E7906F00306032E09D0F6
:10295000D0684F000326BE40B0434F009E68BE4083
:102960003043D0601E7906F00306022E13D1CF0843
:1029700002F1200656F827004E07F70E0F26BE403C
:10298000B0434F07FF0E1E69BE403043CF0802F12F
:10299000200646F8270010684F000326BE40B043CB
:1029A0001E7906F003064F00BE40304310605E689B
:1029B00006F08056B6F1805FA6D100BF00260096D3
:1029C00043F64406C4F20206366846F4804643F6EF
:1029D0004407C4F202073E603E46366806F480466D
:1029E000009600BF00BF43F60806C4F201068F0838
:1029F00056F827008E07370F0F26BE40B04300263B
:102A0000C4F2020600E06EE0B24201D1002620E0EE
:102A10004FF48066C4F20206B24201D1012618E0EA
:102A20004FF40066C4F20206B24201D1022610E061
:102A30004FF44066C4F20206B24201D1032608E018
:102A40004FF48056C4F20206B24201D1042600E0DF
:102A500007268F073F0FBE40304343F60806C4F2F7
:102A600001068F0846F827004FF47056C4F201069D
:102A70003068A0435E6806F48036B6F5803F00D12A
:102A800020434FF47056C4F201063060361D3068A2
:102A9000A0435E6806F40036B6F5003F00D120433F
:102AA00043F60446C4F201063060361D3068A04388
:102AB0005E6806F48016B6F5801F00D1204343F609
:102AC0000846C4F201063060361D3068A0435E68D7
:102AD00006F40016B6F5001F00D1204343F60C465D
:102AE000C4F201063060491C1029FFF406AFF8BD9E
:102AF000024613690B400BB1012000E00020704733
:102B00000AB1816101E00B048361704740F2380033
:102B1000C2F200000068704740F23800C2F20000C4
:102B2000006840F24001C2F200010978084440F216
:102B30003801C2F200010860704710B54FF47050C0
:102B4000C4F20200006840F400704FF47051C4F207
:102B5000020108600846006840F48060086008468A
:102B6000006840F480700860032000F0A6F80020A0
:102B700000F004F800F02BF8002010BD70B50446FA
:102B800040F24000C2F2000000784FF47A71B1FBCD
:102B9000F0F040F24401C2F200010968B1FBF0F527
:102BA000284601F0B0FA08B1012070BD102C0AD2FD
:102BB00000222146501E00F042F840F23C00C2F2D2
:102BC0000000046001E00120EFE70020EDE708B518
:102BD00000BF0020009043F64400C4F202000068E9
:102BE00040F4804043F64401C4F202010860084604
:102BF000006800F48040009000BF00BF00BF0020CC
:102C00000090081F006840F08050091F08600846C7
:102C1000006800F08050009000BF00BF08BD014672
:102C20000846002809DB00F01F0301229A404309EF
:102C30009B0003F1E023C3F8002100BF70472DE99A
:102C4000F05F80460D461646002704F0F7FD074664
:102C500039462A46334601F00700C0F1070ABAF1A7
:102C6000040F02D94FF0040A01E0C0F1070AD1466F
:102C700000F1040ABAF1070F02D24FF0000A01E096
:102C8000A0F1030AD4464FF0010A0AFA09FAAAF1A0
:102C9000010A0AEA020A0AFA0CFA4FF0010B0BFACF
:102CA0000CFBABF1010B0BEA030B4AEA0B042146C8
:102CB000404604F0CBFDBDE8F09F00BF00F00702E6
:102CC0004EF60C53CEF2000319684FF6FF0319407D
:102CD00041F0FD7343F0806343EA02214EF60C534A
:102CE000CEF20003196000BF704770B504460D4670
:102CF0000CB9012070BD4FF47050C4F2020000689E
:102D000000F00700A8420CD24FF47051C4F2020147
:102D10000D700846006800F00700A84201D00120AD
:102D2000E8E7207800F0020002282FD1207800F098
:102D3000040004280BD143F60800C4F20200006826
:102D400040F4E05043F60801C4F202010860207824
:102D500000F0080008280BD143F60800C4F2020076
:102D6000006840F4604043F60801C4F202010860C4
:102D700043F60800C4F20200006820F0F000A168E9
:102D8000084343F60801C4F202010860207800F00D
:102D90000100C0B36068012809D14FF46050C4F24B
:102DA00002000068C0F34040D8B90120A2E7606883
:102DB000022802D06068032809D14FF46050C4F2A1
:102DC00002000068C0F3406058B9012092E74FF458
:102DD0006050C4F202000068C0F3400008B901204E
:102DE00088E743F60800C4F20200006820F0030000
:102DF0006168084343F60801C4F202010860FFF766
:102E000085FE064609E013E0FFF780FE801B41F2D5
:102E10008831884201D903206CE743F60800C4F2E8
:102E20000200006800F00C006168B0EB810FEBD18C
:102E30004FF47050C4F20200006800F00700A8428E
:102E40000CD94FF47051C4F202010D7008460068AD
:102E500000F00700A84201D001204BE7207800F0E5
:102E6000040004280DD143F60800C4F202000068F3
:102E700020F4E050E168084343F60801C4F202017F
:102E80000860207800F0080008280ED143F60800FA
:102E9000C4F20200006820F46040216940EAC100E9
:102EA00043F60801C4F20201086000F043F843F65B
:102EB0000801C4F202010968C1F3031142F63A5253
:102EC000C0F60302515CC84040F24401C2F2000166
:102ED000086040F23C00C2F200000068FFF74EFEBE
:102EE000002007E740F24400C2F20000006870478B
:102EF00000B5FFF7F7FF43F60801C4F202010968C5
:102F0000C1F3822142F64A52C0F60302515CC84026
:102F100000BD00B5FFF7E6FF43F60801C4F2020169
:102F20000968C1F3423142F64A52C0F60302515CCD
:102F3000C84000BD2DE9F047002400250026A14629
:102F400043F60800C4F20200006800F00C0020B153
:102F5000042807D008284ED109E04FF41059C0F2D8
:102F6000F4094DE047F64009C0F27D1948E043F608
:102F70000400C4F20200006800F03F0443F60400BD
:102F8000C4F20200006800F48000A0B147F64000DF
:102F9000C0F27D1043F60401C4F202010968C1F3D6
:102FA0008811A0FB01700146224600233846FDF738
:102FB0000FF9054613E04FF41050C0F2F40043F649
:102FC0000401C4F202010968C1F38811A0FB017079
:102FD0000146224600233846FDF7FAF8054643F637
:102FE0000400C4F202000068C0F30140401C460027
:102FF000B5FBF6F904E04FF41059C0F2F40900BF34
:1030000000BF4846BDE8F087F8B504460CB901207A
:10301000F8BD207800F00100002870D043F60800C9
:10302000C4F20200006800F00C00042812D043F63D
:103030000800C4F20200006800F00C00082817D154
:1030400043F60400C4F20200006800F48000B0F50A
:10305000800F0DD14FF46050C4F202000068C0F33D
:10306000404000286AD06068002867D10120CFE77F
:1030700000BF6068B0F5803F0CD14FF46050C4F2DF
:103080000200006840F480304FF46051C4F2020145
:10309000086026E06068B0F5A02F11D14FF46050B1
:1030A000C4F20200006840F480204FF46051C4F282
:1030B000020108600846006840F48030086010E0B3
:1030C0004FF46050C4F20200006820F480304FF4E6
:1030D0006051C4F2020108600846006820F48020B4
:1030E000086000BF6068A8B1FFF710FD054607E063
:1030F000FFF70CFD401B642802D9032088E71DE080
:103100004FF46050C4F202000068C0F34040002851
:10311000EED013E0FFF7FAFC054606E0FFF7F6FCF9
:10312000401B642801D9032072E74FF46050C4F2B9
:1031300002000068C0F340400028EFD1207800F082
:103140000200022879D143F60800C4F202000068A8
:1031500000F00C0080B143F60800C4F202000068E1
:1031600000F00C00082824D143F60400C4F2020049
:10317000006800F48000E0B94FF46050C4F202002F
:103180000068C0F3400020B1E068012801D00120B0
:103190003EE74FF46050C4F20200006820F0F800EF
:1031A000216940EAC1004FF46051C4F20201086095
:1031B00043E0E06840B301200021C4F247210860E9
:1031C000FFF7A4FC054606E0FFF7A0FC401B022821
:1031D00001D903201CE74FF46050C4F202000068DC
:1031E000C0F340000028EFD04FF46050C4F202005A
:1031F000006820F0F800216940EAC1004FF46051F6
:10320000C4F20201086018E000200021C4F2472146
:103210000860FFF77BFC054606E0FFF777FC401BE4
:10322000022801D90320F3E64FF46050C4F20200F3
:103230000068C0F340000028EFD1207800F00800BB
:10324000082836D16069D0B101204FF46861C4F21A
:1032500047210860FFF75AFC054606E0FFF756FCD9
:10326000401B022801D90320D2E643F67400C4F2C1
:1032700002000068C0F340000028EFD019E00020F1
:103280004FF46861C4F247210860FFF73FFC054630
:1032900006E0FFF73BFC401B022801D90320B7E6FC
:1032A00043F67400C4F202000068C0F34000002836
:1032B000EFD1207800F0040004287CD100274FF4DF
:1032C0006150C4F20200006800F08050B0B900BF45
:1032D000002000904FF46150C4F20200006840F0FA
:1032E00080504FF46151C4F2020108600846006842
:1032F00000F08050009000BF00BF01274FF4E04075
:10330000C4F20000006800F48070F8B94FF4E040A7
:10331000C4F20000006840F480704FF4E041C4F251
:1033200000010860FFF7F2FB054606E0FFF7EEFB41
:10333000401B022801D903206AE64FF4E040C4F2A2
:103340000000006800F480700028EFD000BFA06883
:1033500001280CD143F67000C4F20200006840F06E
:10336000010043F67001C4F20201086027E0A06882
:10337000052811D143F67000C4F20200006840F045
:10338000040043F67001C4F20201086008460068B8
:1033900040F00100086012E043F67000C4F2020041
:1033A000006820F0010043F67001C4F202010860D9
:1033B0000846006800E041E020F00400086000BF1B
:1033C000A068B0B1FFF7A2FB054608E0FFF79EFB3F
:1033D000401B41F28831884201D9032018E643F6A8
:1033E0007000C4F202000068C0F340000028EDD075
:1033F00015E0FFF78BFB054608E0FFF787FB401B56
:1034000041F28831884201D9032001E643F6700079
:10341000C4F202000068C0F340000028EDD1012F83
:103420000BD14FF46150C4F20200006820F08050CC
:103430004FF46151C4F20201086000BFA069002886
:1034400052D043F60800C4F20200006800F00C00FD
:10345000082864D0A069022847D100200021C4F2C6
:1034600047210866FFF752FB054606E0FFF74EFBD3
:10347000401B022801D90320CAE54FF46050C4F272
:1034800002000068C0F340600028EFD1D4E90701D2
:103490000843616A40EA81110122A06AC2EB500030
:1034A00041EA00412C20005D41EA006043F604013E
:1034B000C4F20201086001200021C4F2472108661D
:1034C000FFF724FB054606E0FFF720FB401B022820
:1034D00001D903209CE54FF46050C4F2020000685B
:1034E000C0F340600028EFD048E000200021C4F283
:1034F00047210866FFF70AFB054606E0FFF706FBD3
:10350000401B022801D9032082E54FF46050C4F229
:1035100002000068C0F340600028EFD12EE0A069EF
:10352000012800D174E543F60400C4F202000668E5
:10353000A069012820D006F48001E06981421BD1F6
:1035400006F03F01206A814216D147F6C070304034
:10355000616AB0EB811F0FD106F440310122A06AED
:10356000C2EB5000B1EB004F06D106F070612C2089
:10357000005DB1EB006F01D0012049E5002047E577
:10358000704710B504460CB9012010BD606A38B907
:103590006068B0F5827F00D105E00021E16102E0C2
:1035A0000021216161610021A16294F8510028B9D4
:1035B000002084F85000204600F047F8022084F8EC
:1035C00051002068006820F0400021680860A08851
:1035D00000F48270218901F404410843A18901F4B7
:1035E00000610843217C01F002010843217D01F0C4
:1035F00001010843218B01F400710843217F01F090
:10360000380108432021095D01F080010843218D24
:1036100001F400510843216808600421A06901EA0F
:10362000104094F8241001F010010843216848600C
:103630002068C06920F400602168C86100206065CE
:10364000012084F8510000209FE710B586B00446A1
:10365000142101A8FCF7F4FD4FF44051C4F201011C
:10366000206888427DD100BF0020009043F64400CE
:10367000C4F20200006840F4805043F64401C4F2F2
:10368000020108600846006800F48050009000BF06
:1036900000BF00BF0020009043F63000C4F20200DB
:1036A000006840F0010043F63001C4F202010860F6
:1036B0000846006800F00100009000BF00BF00BF96
:1036C000002000900846006840F0020008600846AC
:1036D000006800F00200009000BF00BF10200190C1
:1036E0000220029000200390032004900520059002
:1036F00001A90020C4F20200FFF7F7F8282001908A
:1037000002200290002003900320049005200590E1
:1037100001A94FF48060C4F20200FFF7E6F846F218
:103720004040C4F2020040F22C71C2F20001086075
:103730004FF080604860402140F22C70C2F20000DF
:1037400081600021C1604FF48061016149004161E5
:10375000890081610021C1614FF440310162002183
:1037600000E00DE04162FEF7EBFF08B1FEF7EEFA74
:1037700000BF40F22C70C2F20000A0648463DBE062
:103780004FF46051C4F20001206888423ED100BF6E
:10379000002000904FF46150C4F20200006840F431
:1037A00080404FF46151C4F202010860084600688D
:1037B00000F48040009000BF00BF00BF00200090D8
:1037C00043F63000C4F20200006840F0020043F605
:1037D0003001C4F2020108600846006800F00200EF
:1037E000009000BF00BF4FF46040019002200290A3
:1037F00000200390032004900520059001A94FF4B8
:103800008060C4F20200FFF770F895E04FF4705149
:10381000C4F2000120688842B1D100BF00200090AE
:103820004FF46150C4F20200006840F400404FF4CD
:103830006151C4F2020108600846006800F40040CB
:10384000009000BF00BF00BF0020009043F6300092
:10385000C4F20200006840F0040043F63001C4F2F4
:10386000020108600846006800F00400009000BFF4
:1038700000BF4FF4E050019002200290002003901E
:10388000032004900620059001A94FF40060C4F2C3
:103890000200FFF72AF846F28800C4F2020040F264
:1038A0008C71C2F20001086000204860402140F2A3
:1038B0008C70C2F2000081600021C1604FF4806111
:1038C0000161002141618161C16101624162FEF7D4
:1038D00037FF08B1FEF73AFA00BF40F28C70C2F22F
:1038E0000000A064846300BF46F24000C4F20200FE
:1038F00040F2EC71C2F20001086000204860002133
:1039000040F2EC70C2F200008160C1604FF480614F
:103910000161002141618161C16101624162FEF783
:103920000FFF08B1FEF712FA00BF40F2EC70C2F2CE
:103930000000E064846300BF06B010BD2DE9F843C9
:103940000446884616461D464FF000096068B0F5EB
:10395000827F0DD1A06858B9042084F85100334605
:10396000424641462046009500F079F9BDE8F883CB
:1039700000BF94F85000012801D10220F6E7012091
:1039800084F8500000BFFFF7C1F8074694F85100D3
:10399000012802D04FF002097EE0B8F1000F00D0FC
:1039A00016B94FF0010977E0042084F85100002097
:1039B0006065C4F83880A687E6872063A086E08625
:1039C00020646064A068B0F5004F0BD120680068E7
:1039D00020F04000216808602068006820F48040E2
:1039E000216808602068006800F04000402805D089
:1039F0002068006840F0400021680860E068F8B97D
:103A00001AE02068806800F0010050B12068007B57
:103A1000A16B0870A06B401CA063E08F401EE08784
:103A20000AE0FFF773F8C01BA84201D3681C00B975
:103A300015B94FF003092FE0E08F0028E1D11EE017
:103A40001AE02068806800F0010050B12068C0686A
:103A5000A16B0880A06B801CA063E08F401EE087F4
:103A60000AE0FFF753F8C01BA84201D3681C00B955
:103A700015B94FF003090FE0E08F0028E1D13A4675
:103A80002946204602F081FF08B120206065606D64
:103A900008B14FF0010900BF012084F8510000BFB8
:103AA000002084F8500000BF48465FE77047704729
:103AB0002DE9F84F0446884616461D464FF0000A89
:103AC00000BF94F85000012802D10220BDE8F88F11
:103AD000012084F8500000BFFFF718F80746B146F0
:103AE00094F85100012802D04FF0020AADE0B8F17D
:103AF000000F00D016B94FF0010AA6E0032084F8A9
:103B0000510000206065C4F83080A686E686A06378
:103B1000A087E08760642064A068B0F5004F0BD1F7
:103B20002068006820F04000216808602068006874
:103B300040F48040216808602068006800F0400080
:103B4000402805D02068006840F0400021680860E7
:103B5000E068B0F5006F2FD1606810B1B9F1010FC6
:103B600009D1206B00882168C860206B801C20630D
:103B7000E08E401EE0861BE02068806800F00200B6
:103B800002280AD1206B00882168C860206B801C45
:103B90002063E08E401EE0860AE0FEF7B7FFC01B00
:103BA000A84201D3681C00B915B94FF0030A4CE0D4
:103BB000E08E0028E0D12EE0606810B1B9F1010F6D
:103BC00009D1206B007821680873206B401C2063AA
:103BD000E08E401EE0861BE02068806800F0020056
:103BE00002280AD1206B007821680873206B401CE2
:103BF0002063E08E401EE0860AE0FEF787FFC01BD0
:103C0000A84201D3681C00B915B94FF0030A1CE0A3
:103C1000E08E0028E0D13A462946204602F0FFFE19
:103C200008B120206065A06850B900BF0020009056
:103C30002068C068009020688068009000BF00BFC6
:103C4000606D08B14FF0010A00BF012084F85100F7
:103C500000BF002084F8500000BF504636E72DE931
:103C6000FF5F0446884691461D460E9E0120029045
:103C70000020019000BF94F85000012803D10220D9
:103C800004B0BDE8F09F012084F8500000BFFEF7AB
:103C90003DFF074694F851B060680390AA46BBF117
:103CA000010F0BD00398B0F5827F04D1A06810B942
:103CB000BBF1040F02D002200190DBE0B8F1000F4D
:103CC00003D0B9F1000F00D015B901200190D1E067
:103CD00094F85100042802D0052084F851000020F7
:103CE0006065C4F83890E587A587C4F83080E5861C
:103CF000A586206460642068006800F040004028C9
:103D000005D02068006840F0400021680860E06845
:103D1000B0F5006F4AD1606810B1BAF1010F09D156
:103D2000206B00882168C860206B801C2063E08EB7
:103D3000401EE08633E02068806800F00200022820
:103D400010D1E08E70B1029801280BD1206B008851
:103D50002168C860206B801C2063E08E401EE086D6
:103D6000002002902068806800F0010068B1E08FB8
:103D700058B12068C068A16B0880A06B801CA0634C
:103D8000E08F401EE08701200290FEF7BFFEC01BBF
:103D9000B04204D3701C10B1032001906AE0E08EA1
:103DA0000028C8D1E08F0028C5D14AE0606810B172
:103DB000BAF1010F09D1206B007821680873206BDC
:103DC000401C2063E08E401EE08634E0206880685E
:103DD00000F00200022810D1E08E70B10298012894
:103DE0000BD1206B007821680873206B401C206386
:103DF000E08E401EE086002002902068806800F07F
:103E0000010068B1E08F58B12068C068A16B0870EC
:103E1000A06B401CA063E08F401EE0870120029051
:103E2000FEF774FEC01BB04201D3701C00B916B976
:103E3000032001901EE0E08E0028C7D1E08F00280B
:103E4000C4D13A463146204602F0E9FD20B10120B6
:103E50000190202060650DE0A06850B900BF0020EF
:103E600000902068C068009020688068009000BFC3
:103E700000BF00BF012084F8510000BF002084F87B
:103E8000500000BF0198FBE62DE9F04704460E46BE
:103E900017461D464FF0000A00BF94F85000012855
:103EA00002D10220BDE8F087012084F8500000BF55
:103EB00094F85180D4F80490B8F1010F0AD0B9F504
:103EC000827F04D1A06810B9B8F1040F02D04FF07E
:103ED000020A8CE00EB107B115B94FF0010A86E075
:103EE00094F85100042802D0052084F851000020E5
:103EF00060652663A586E586A763A587E5872064B8
:103F0000606494F8510004280CD146F2FD70C0F6AC
:103F10000000E16C086446F62700C0F60000E16C82
:103F2000C8630BE046F61900C0F60000E16C0864B7
:103F300046F62310C0F60000E16CC86346F2D57067
:103F4000C0F60000E16CC8640020E16C0865E38FF6
:103F5000D4F800C00CF10C01A26BE06CFEF767FC1A
:103F600048B1606D40F0100060654FF0010A01201B
:103F700084F851003BE02068406840F0010021686F
:103F800048600020A16C0864A16CC863A16CC8647F
:103F9000A16C0865E38ED4F800C00CF10C02216B13
:103FA000A06CFEF744FC48B1606D40F01000606505
:103FB0004FF0010A012084F8510018E020680068E1
:103FC00000F04000402805D02068006840F0400024
:103FD000216808602068406840F02000216848603F
:103FE0002068406840F002002168486000BF00BFC0
:103FF000002084F8500000BF504653E72DE9F041FF
:1040000004460E461546002700BF94F850000128CC
:1040100002D10220BDE8F081012084F8500000BFE9
:1040200094F85100012801D0022761E006B10DB9D2
:1040300001275DE0032084F85100002060652663BD
:10404000A586E586A06360642064A087E087A068F9
:10405000B0F5004F0BD12068006820F040002168C7
:1040600008602068006840F480402168086046F6D7
:104070000B00C0F60000A16C086446F6A300C0F671
:104080000000A16CC86346F2D570C0F60000A16CB8
:10409000C8640020A16C0865E38ED4F800C00CF160
:1040A0000C02216BA06CFEF7C2FB40B1606D40F0CA
:1040B000100060650127012084F8510018E0206895
:1040C000006800F04000402805D02068006840F0FB
:1040D0004000216808602068406840F020002168A6
:1040E00048602068406840F002002168486000BFD6
:1040F00000BF002084F8500000BF38468AE77047B0
:1041000070477047704770B504462546681EB0F189
:10411000807F01D301200FE0681E4FF0E02148614D
:104120000F214FF0FF3003F091FB00204FF0E02112
:10413000886107200861002070BD7047704730B566
:1041400002460B4600BF92F83C00012801D1022034
:1041500030BD012082F83C0000BF022082F83D0003
:10416000106844681068816824F07004186804437B
:10417000106844600025C4F201051068A8421FD0F1
:104180001068B0F1804F1BD04FF48065C4F2000579
:104190001068A84214D04FF40065C4F200051068FE
:1041A000A8420DD04FF44065C4F200051068A84243
:1041B00006D04FF48045C4F201051068A84205D12D
:1041C00021F080015868014310688160012082F865
:1041D0003D0000BF002082F83C0000BF00BFB7E7F1
:1041E00010B504460CB9012010BD94F83D0028B963
:1041F000002084F83C00204600F025F8022084F8D6
:104200003D00211D206802F02AFD012084F84600AF
:1042100000BF84F83E0001213F2001554020015598
:104220004120015500BF00BF012084F84200432017
:104230000155442001554520015500BF012084F857
:104240003D000020D0E738B504460021C4F201014A
:104250002068884215D100BF0020009043F644003A
:10426000C4F20200006840F0010043F64401C4F2C9
:10427000020108600846006800F00100009000BFDD
:1042800079E02068B0F1804F15D100BF0020009088
:104290004FF46150C4F20200006840F001004FF496
:1042A0006151C4F2020108600846006800F0010094
:1042B000009000BF5FE04FF48061C4F2000120680D
:1042C000884215D100BF002000904FF46150C4F225
:1042D0000200006840F002004FF46151C4F2020194
:1042E00008600846006800F00200009000BF42E04D
:1042F0004FF40061C4F20001206888421ED100BF63
:10430000002000904FF46150C4F20200006840F0B9
:1043100004004FF46151C4F20201086008460068CD
:1043200000F00400009000BF00BF002211461E20D4
:10433000FEF785FC1E20FEF772FC1CE04FF4406186
:10434000C4F200012068884215D100BF002000900F
:104350004FF46150C4F20200006840F008004FF4CE
:104360006151C4F2020108600846006800F00800CC
:10437000009000BF00BF38BD014691F83D00012804
:1043800001D001207047022081F83D000023C4F2D3
:104390000103086898421FD00868B0F1804F1BD015
:1043A0004FF48063C4F200030868984214D04FF4BD
:1043B0000063C4F20003086898420DD04FF44063D4
:1043C000C4F200030868984206D04FF48043C4F258
:1043D0000103086898420CD10868806800F0070261
:1043E000062A0CD00868006840F001000B681860CD
:1043F00005E00868006840F001000B6818600020C4
:10440000C0E7014691F83D00012801D00120704726
:10441000022081F83D000868C06840F001000B6888
:10442000D8600023C4F20103086898421FD00868CE
:10443000B0F1804F1BD04FF48063C4F200030868D2
:10444000984214D04FF40063C4F200030868984205
:104450000DD04FF44063C4F200030868984206D0C0
:104460004FF48043C4F20103086898420CD10868F5
:10447000806800F00702062A0CD00868006840F047
:1044800001000B68186005E00868006840F0010052
:104490000B6818600020BAE7014600BF0868006A90
:1044A00041F21112104050B90868006A9210104091
:1044B00028B90868006820F001000A68106000BF91
:1044C000012081F83D00002070472DE9F0410446AD
:1044D0000D4600BF94F83C00012802D10220BDE83F
:1044E000F081012084F83C0000BF022084F83D00E8
:1044F0002068866826F0770626F47F462068866066
:104500002868502833D00CDC202850D004DC002848
:104510004BD0102851D149E0302849D040284CD107
:1045200039E060282DD0702807D0B0F5805F03D027
:10453000B0F5005F41D10DE040E0D5E902136A68B3
:10454000206802F001FC2068866846F07706206843
:10455000866033E0D5E902136A68206802F0F4FB54
:104560002068806840F480402168886026E0EA681E
:104570006968206802F0BCFC5021206802F0EFFB63
:104580001CE0EA686968206802F0C5FC60212068C8
:1045900002F0E5FB12E0EA686968206802F0A8FC16
:1045A0004021206802F0DBFB08E000BF00BF00BF35
:1045B0002968206802F0D3FB00E000BF00BF0120A3
:1045C00084F83D0000BF002084F83C0000BF00BF1D
:1045D00085E7704710B5044620680069C0F34000C5
:1045E000D8B12068C068C0F34000B0B16FF00200DD
:1045F00021680861012020772068806900F00300AD
:1046000018B12046FFF7E5FF05E0204600F0DFF88F
:10461000204600F08FF90020207720680069C0F361
:104620008000D8B12068C068C0F38000B0B16FF0DE
:10463000040021680861022020772068806900F466
:10464000407018B12046FFF7C4FF05E0204600F097
:10465000BEF8204600F06EF900202077206800693F
:10466000C0F3C000D8B12068C068C0F3C000B0B1CA
:104670006FF0080021680861042020772068C06975
:1046800000F0030018B12046FFF7A3FF05E0204625
:1046900000F09DF8204600F04DF9002020772068BA
:1046A0000069C0F30010D8B12068C068C0F30010E2
:1046B000B0B16FF0100021680861082020772068F1
:1046C000C06900F4407018B12046FFF782FF05E092
:1046D000204600F07CF8204600F02CF900202077DE
:1046E0002068006900F0010058B12068C06800F03F
:1046F000010030B16FF0010021680861204600F030
:1047000095F920680069C0F3C01058B12068C068EE
:10471000C0F3C01030B16FF08000216808612046FE
:10472000FFF70BFD20680069C0F3801058B12068C6
:10473000C068C0F3801030B16FF04000216808619C
:10474000204600F07FF920680069C0F3401058B19E
:104750002068C068C0F3401030B16FF020002168BD
:1047600008612046FFF7EAFC10BD10B586B004468C
:10477000142101A8FBF764FD2068B0F1804F24D11B
:1047800000BF0020009043F63000C4F20200006831
:1047900040F0010043F63001C4F20201086008460F
:1047A000006800F00100009000BF00BF01200190F0
:1047B000022002900020039004900120059001A99E
:1047C0000020C4F20200FEF790F806B010BD70475A
:1047D00070B504460D46164600BF94F83C0001280B
:1047E00001D1022070BD012084F83C0000BF36B129
:1047F000042E1BD0082E31D00C2E5ED145E0294668
:10480000206802F0B5FA2068806940F0080021684D
:1048100088612068806920F0040021688861206830
:104820008069296908432168886147E02946206832
:1048300002F0CFFA2068806940F400602168886146
:104840002068806920F48060216888612068806920
:10485000296940EA0120216888612FE02946206803
:1048600002F0EDFA2068C06940F008002168C861D4
:104870002068C06920F004002168C8612068C06910
:10488000296908432168C86118E02946206802F0B8
:104890000BFB2068C06940F400602168C861206893
:1048A000C06920F480602168C8612068C0692969F6
:1048B00040EA01202168C86100E000BF00BF00BFDE
:1048C000002084F83C0000BF00BF8BE710B5044611
:1048D0000CB9012010BD94F83D0028B9002084F8DF
:1048E0003C00204600F025F8022084F83D00211D00
:1048F000206802F0B4F9012084F8460000BF84F873
:104900003E0001213F200155402001554120015525
:1049100000BF00BF012084F842004320015544201D
:1049200001554520015500BF012084F83D000020BD
:10493000D0E77047704770B504460D4615B994F836
:104940003E000BE0042D02D13F20005D06E0082D63
:1049500002D14020005D01E04120005D012801D02E
:10496000012070BD1DB9022084F83E000EE0042D28
:1049700003D102213F20015508E0082D03D1022177
:104980004020015502E00221412001550122294623
:10499000206802F0C8F90021C4F2010120688842B1
:1049A00001D1012000E0002028B12068406C40F4D3
:1049B0000040216848640021C4F201012068884257
:1049C0001FD02068B0F1804F1BD04FF48061C4F23B
:1049D00000012068884214D04FF40061C4F2000145
:1049E000206888420DD04FF44061C4F20001206875
:1049F000884206D04FF48041C4F201012068884209
:104A00000CD12068806800F00706062E0CD02068C4
:104A1000006840F001002168086005E02068006837
:104A200040F001002168086000209AE710B50446B4
:104A300040F62410C2F20000844202D1012027F087
:104A400089F910BD7047704770B50446002520688D
:104A50004069C0F3C01594F83D0021280ED16DB116
:104A60002068406920F0800021684861606B10B1C7
:104A7000606BFDF7DCFC204602F0C6FB2068406955
:104A8000C0F3801594F83E0022280ED16DB1206845
:104A9000406920F0400021684861A06B10B1A06B14
:104AA000FDF7C5FC204602F084FB002070BD704776
:104AB0002DE9F84F0446206805682068C66820681C
:104AC00047694FF00009CA4605F00F09B9F1000F18
:104AD0000AD105F0200038B106F0200020B12046B0
:104AE00002F09CFBBDE8F88FB9F1000F75D007F01C
:104AF000010018B906F4907000286ED005F001008E
:104B000030B106F4807018B1206C40F001002064D0
:104B100005F0040030B107F0010018B1206C40F03E
:104B20000200206405F0020030B107F0010018B166
:104B3000206C40F00400206405F0080048B106F045
:104B4000200010B907F0010018B1206C40F00800F7
:104B50002064206C88B305F0200028B106F0200006
:104B600010B1204602F05AFB20684069C0F3801A59
:104B7000206C00F0080010B9BAF1000F26D02046D2
:104B800002F017FB2068406900F04000402819D16E
:104B90002068406920F0400021684861A06B68B13E
:104BA00047F28300C0F60000A16B0865A06BFDF71B
:104BB00093FC10B1A06B016D88470CE02046FFF715
:104BC00076FF08E02046FFF772FF04E02046FFF77B
:104BD0006EFF0020206485E7FFE7206B012879D174
:104BE00005F01000002875D006F01000002871D0E4
:104BF00000BF002000902068006800902068406896
:104C0000009000BF00BF2068406900F040004028CD
:104C100039D1A06B006840681FFA80F8B8F1000F26
:104C200030D0A08D40452DDDA4F82E80A06BC0694A
:104C3000B0F5807F1FD02068C06820F480702168A4
:104C4000C8602068406920F0010021684861206840
:104C5000406920F0400021684861202084F83E002F
:104C6000002020632068C06820F010002168C86020
:104C7000A06BFDF7DCFBA08DE28D801A81B220468F
:104C8000FFF7E1FE2EE7A08DE18D401A1FFA80F8B4
:104C9000E08DE8B1B8F1000F1AD02068C06820F4A8
:104CA00090702168C8602068406920F00100216888
:104CB0004861202084F83E00002020632068C068FE
:104CC00020F010002168C86041462046FFF7BBFE77
:104CD00008E7FFE705F0800030B106F0800018B16A
:104CE000204602F065FCFDE605F0400030B106F01C
:104CF000400018B1204602F077FAF3E600BFF1E673
:104D000010B504460CB9012010BDA06900B100E047
:104D100000BF94F83D0028B9002084F83C002046EC
:104D200000F027F8242084F83D002068C06820F4B3
:104D300000502168C860204602F0CFFA2068006960
:104D400020F49040216808612068406920F02A0022
:104D5000216848612068C06840F400502168C8603C
:104D600000202064202084F83D0084F83E000020CC
:104D7000CAE710B586B00446142101A8FBF760FA13
:104D80004FF48051C4F20101206888427DD100BFF8
:104D90000020009043F64400C4F20200006840F096
:104DA000100043F64401C4F202010860084600689E
:104DB00000F01000009000BF00BF00BF0020009076
:104DC00043F63000C4F20200006840F0010043F6F0
:104DD0003001C4F2020108600846006800F00100DA
:104DE000009000BF00BF4FF4C0600190022002900D
:104DF00000200390032004900720059001A90020C3
:104E0000C4F20200FDF771FD46F28840C4F20200D0
:104E100040F6C021C2F2000108604FF00060486017
:104E2000002140F6C020C2F200008160C1604FF452
:104E3000806101610021416181614FF48071C16134
:104E4000002101624162FDF77BFC08B1FCF77EFFA7
:104E500000BF40F6C020C2F20000A063846300BF20
:104E600046F2B840C4F2020040F62031C2F200011E
:104E700008604FF000604860402140F62030C2F2E8
:104E8000000081600021C16000E01DE04FF48061FE
:104E90000161002141618161C16101624162FDF7EF
:104EA0004FFC08B1FCF752FF00BF40F62030C2F2C1
:104EB00000006063846300BF002211462520FDF7D7
:104EC000BEFE2520FDF7ABFE06B010BD70B5044652
:104ED0000D46164694F83E00202816D105B10EB9AD
:104EE000012070BD00BF94F83C00012801D10220D0
:104EF000F7E7012084F83C0000BF00202063324621
:104F00002946204602F006FBEBE70220E9E770475E
:104F100070472DE9F84F04460E46174699464FF064
:104F2000000A94F83D0020285AD106B117B9012093
:104F3000BDE8F88F00BF94F83C00012801D10220A1
:104F4000F6E7012084F83C0000BF00202064212007
:104F500084F83D00FDF7DAFD8246A784E784A06867
:104F6000B0F5805F04D1206910B90025B04602E099
:104F700035464FF0000800BF002084F83C0000BF19
:104F80001BE05346002280212046CDF8009002F01D
:104F90003FFB08B10320CBE745B9B8F80000C0F3E8
:104FA00008002168486008F1020803E028782168B9
:104FB00048606D1CE08C401EE084E08C0028E0D14D
:104FC0005346002240212046CDF8009002F020FBFD
:104FD00008B10320ACE7202084F83D000020A7E7BB
:104FE0000220A5E7F7B50446154694F83D002028B1
:104FF00046D1019800B10DB90120FEBD00BF94F863
:105000003C00012801D10220F7E7012084F83C0090
:1050100000BF01982062A584E5840020206421203F
:1050200084F83D0047F26F10C0F60000616BC86362
:1050300047F2A510C0F60000616B086447F29700C4
:10504000C0F60000616BC8640020616B086501AEAA
:1050500023681A1D31682B46606BFDF7E8FB6FF083
:1050600040002168086000BF002084F83C0000BFB9
:105070002068406940F08000216848610020BCE75A
:105080000220BAE77047704700BFFEE770B50646DA
:1050900040F68030C2F200004088401E83B240F6E5
:1050A0008030C2F200000088401E82B20021084613
:1050B00000F067F9012211024FF48060C4F202008F
:1050C000FDF71EFD00240DE0002503E0304600F052
:1050D00089FA6D1C40F68030C2F200000088A842B8
:1050E000F4D8641C40F68030C2F200004088A04230
:1050F000EAD870BD00B5ADF5017D00F02AF9CF20EA
:1051000000F0F9F9002000F0E2F9D92000F0DFF911
:10511000302000F0DCF9ED2000F0EDF9642000F023
:10512000D6F9032000F0D3F9122000F0D0F9812045
:1051300000F0CDF9E82000F0DEF9852000F0C7F995
:10514000102000F0C4F97A2000F0C1F9CB2000F063
:10515000D2F9392000F0BBF92C2000F0B8F900207A
:1051600000F0B5F9342000F0B2F9022000F0AFF9F8
:10517000F72000F0C0F9202000F0A9F9EA2000F0A3
:10518000BAF9002000F0A3F9002000F0A0F9C02037
:1051900000F0B1F91B2000F09AF9C12000F0ABF942
:1051A000122000F094F9C52000F0A5F9082000F0C5
:1051B0008EF9262000F08BF9C72000F09CF9B7206B
:1051C00000F085F9362000F096F9082000F07FF90C
:1051D0003A2000F090F9552000F079F9B12000F064
:1051E0008AF9002000F073F91A2000F070F9B62057
:1051F00000F081F90A2000F06AF9A22000F067F9B6
:10520000F22000F078F9002000F061F9262000F08B
:1052100072F9012000F05BF9E02000F06CF90F203A
:1052200000F055F91D2000F052F91A2000F04FF956
:105230000A2000F04CF90D2000F049F9072000F099
:1052400046F9492000F043F9662000F040F93B2080
:1052500000F03DF9072000F03AF9112000F037F98D
:10526000012000F034F9092000F031F9052000F0A8
:105270002EF9042000F02BF9E12000F03CF9002089
:1052800000F025F9182000F022F91D2000F01FF988
:10529000022000F01CF90F2000F019F9042000F0A2
:1052A00016F9362000F013F9132000F010F94C2005
:1052B00000F00DF9072000F00AF9132000F007F9BB
:1052C0000F2000F004F92E2000F001F92F2000F04B
:1052D000FEF8052000F0FBF82B2000F00CF9002070
:1052E00000F0F5F8002000F0F2F8012000F0EFF8EF
:1052F0003F2000F0ECF82A2000F0FDF8002000F03C
:10530000E6F8002000F0E3F8002000F0E0F8EF20DD
:1053100000F0DDF8112000F0EEF87820FDF7D0FA6B
:10532000292000F0E8F8002000F00DF9012101A883
:1053300001F00EF89DF804004FF08041486340F200
:105340007600C2F200000088FFF7A0FE0DF5017D97
:1053500000BD10B5002280214FF48060C4F202002D
:10536000FDF7CEFB6420FDF7ABFA012280214FF45C
:105370008060C4F20200FDF7C3FB3220FDF7A0FA03
:1053800010BD2DE9F04104460D4616461F4640F675
:105390008031C2F20001887A00F0ADF8201200F0EE
:1053A00096F8E0B200F093F8301200F090F8F0B206
:1053B00000F08DF840F68031C2F20001087B00F069
:1053C0009AF8281200F083F8E8B200F080F838125A
:1053D00000F07DF8F8B200F07AF800F0A1F8BDE82E
:1053E000F0812DE9FC4104460D4616461F46002279
:1053F0004FF480714FF48060C4F20200FDF780FB2F
:105400004FF0FF33012240F68A31C2F2000140F230
:105410002460C2F20000FEF74BFBADF80440ADF88B
:105420000660012211024FF48060C4F20200FDF711
:1054300067FB4FF0FF33022201A940F22460C2F261
:105440000000FEF735FB00224FF480714FF48060BE
:10545000C4F20200FDF754FB4FF0FF33012240F687
:105460008C31C2F2000140F22460C2F20000FEF76B
:105470001FFBADF80050ADF80270012211024FF48D
:105480008060C4F20200FDF73BFB4FF0FF330222C5
:10549000694640F22460C2F20000FEF709FB0022D8
:1054A0004FF480714FF48060C4F20200FDF728FBD6
:1054B0004FF0FF33012240F68831C2F2000140F282
:1054C0002460C2F20000FEF7F3FABDE8FC8101B5EA
:1054D000012211024FF48060C4F20200FDF710FBBC
:1054E0004FF0FF330122694640F22460C2F200000F
:1054F000FEF7DEFA08BD01B500224FF480714FF4CB
:105500008060C4F20200FDF7FBFA4FF0FF33012286
:10551000694640F22460C2F20000FEF7C9FA08BDF5
:1055200010B540F68031C2F20001087AFFF7E3FFC0
:1055300010BD70B505460C462846FFF7DCFFE0B20B
:10554000FFF7C5FF70BD10B504462A2040F6803134
:10555000C2F2000148812B2088812C20088134B1BF
:10556000012C12D0022C1ED0032C38D129E0F020BF
:1055700040F68031C2F2000108804FF4A0704880EC
:1055800008213620FFF7D5FF2AE04FF4A07040F63F
:105590008031C2F200010880F02048806821362066
:1055A000FFF7C7FF1CE0F02040F68031C2F2000197
:1055B00008804FF4A0704880C8213620FFF7B9FF5B
:1055C0000EE04FF4A07040F68031C2F20001088076
:1055D000F0204880A8213620FFF7ABFF00E000BF95
:1055E00000BF10BD38B50446012211024FF480609F
:1055F000C4F20200FDF784FA20128DF80000E0B238
:105600008DF801004FF0FF330222694640F224601A
:10561000C2F20000FEF74CFA38BD1FB50020009022
:105620000190029003904FF40050C4F2010040F248
:105630007C51C2F2000108604FF400304860002144
:1056400040F27C50C2F200008160012101610176CC
:10565000002180F82010C1620121C0F60071816232
:105660000021C1600A21C161012180F8301041612F
:10567000FCF72EFD08B1FCF769FB0F20009001201C
:10568000019000200290694640F27C50C2F2000076
:10569000FCF786FB08B1FCF759FB0E2000900220B6
:1056A0000190694640F27C50C2F20000FCF778FBA2
:1056B00008B1FCF74BFB06200090032001906946DF
:1056C00040F27C50C2F20000FCF76AFB08B1FCF724
:1056D0003DFB0520009004200190694640F27C507B
:1056E000C2F20000FCF75CFB08B1FCF72FFB0220C4
:1056F000009005200190694640F27C50C2F2000003
:10570000FCF74EFB08B1FCF721FB012000900620BE
:105710000190694640F27C50C2F20000FCF740FB69
:1057200008B1FCF713FB03200090072001906946A5
:1057300040F27C50C2F20000FCF732FB08B1FCF7EB
:1057400005FB0720009008200190694640F27C503C
:10575000C2F20000FCF724FB08B1FCF7F7FA0820BE
:10576000009009200190694640F27C50C2F200008E
:10577000FCF716FB08B1FCF7E9FA0D2000900A20AF
:105780000190694640F27C50C2F20000FCF708FB31
:1057900008B1FCF7DBFA1FBD08B500BF0020009080
:1057A00043F63000C4F20200006840F4800043F683
:1057B0003001C4F2020108600846006800F480006D
:1057C000009000BF00BF00BF0020009008460068A6
:1057D00040F4001008600846006800F400100090D3
:1057E00000BF00BF002211460D20FDF728FA0D2052
:1057F000FDF715FA002211461020FDF720FA1020BF
:10580000FDF70DFA002211463820FDF718FA38206E
:10581000FDF705FA002211463A20FDF710FA3A206A
:10582000FDF7FDF9002211464420FDF708FA442057
:10583000FDF7F5F9002211464620FDF700FA462053
:10584000FDF7EDF908BD10B540F22141C2F20001AB
:1058500040F20C40C2F20000FCF77BFA40F220411B
:10586000C2F20001087010BD00B587B0142102A873
:10587000FAF7E6FC00BF0020019043F63000C4F2C6
:105880000200006840F0040043F63001C4F2020157
:1058900008600846006800F00400019000BF00BFE7
:1058A00000BF002001900846006840F080000860BA
:1058B0000846006800F08000019000BF00BF00BFF4
:1058C000002001900846006840F00100086008468A
:1058D000006800F00100019000BF00BF00BF002081
:1058E00001900846006840F0020008600846006821
:1058F00000F00200019000BF00BF00BF0020019037
:105900000846006840F0080008600846006800F09B
:105910000800019000BF00BF002242F244014FF492
:105920000060C4F20200FDF7EBF8012206214FF4FB
:105930008060C4F20200FDF7E3F8002241F2D0716A
:105940004FF48060C4F20200FDF7DAF801228021F2
:105950004FF40060C4F20200FDF7D2F800224FF4C9
:1059600000610020C4F20200FDF7CAF80122D10351
:105970000020C4F20200FDF7C3F8002204214FF416
:105980004060C4F20200FDF7BBF84FF400500290F3
:1059900001200390022004900020059002A94FF4FA
:1059A0000060C4F20200FCF7A0FF40F20330029056
:1059B000002003900120049002A94FF40060C4F27B
:1059C0000200FCF792FFC420029001200390049093
:1059D0000020059002A94FF40060C4F20200FCF719
:1059E00084FF40F2064002900120039004900020C2
:1059F000059002A94FF48060C4F20200FCF775FF25
:105A00004FF48C500290012003900020049003205A
:105A1000059002A94FF48060C4F20200FCF765FF14
:105A20004FF488500290002003900120049002A9B6
:105A30000020C4F20200FCF758FF4FF4006002900F
:105A40000120039004900020059002A90020C4F2D8
:105A50000200FCF74AFF4FF400400290012003903F
:105A6000002004900320059002A90020C4F2020047
:105A7000FCF73BFF042002900120039002200490D9
:105A80000020059002A94FF44060C4F20200FCF728
:105A90002CFF50200290012003900220049000204F
:105AA000059002A94FF48060C4F20200FCF71DFFCC
:105AB0004FF40070029001200390002004900590A4
:105AC00002A94FF48060C4F20200FCF70EFF07B099
:105AD00000BD10B54FF44050C4F2010040F2246103
